:0200000480007A
:1000000000000000000000000000000000000000F0
:1000100000000000000000000000000000000000E0
:1000200000000000000000000000000000000000D0
:1000300000000000000000000000000000000000C0
:1000400000000000000000000000000000000000B0
:1000500000000000000000000000000000000000A0
:100060000000000000000000000000000000000090
:100070000000000000000000000000000000000080
:100080000000000000000000000000000000000070
:100090000000000000000000000000000000000060
:1000A0000000000000000000000000000000000050
:1000B0000000000000000000000000000000000040
:1000C000FD62938202400100FD12E39E02FE374171
:1000D000000213010100B701000293810100B7552E
:1000E0000080938505BC37560080130606C5B70609
:1000F00000029386060039A083A2050023A05600C3
:1001000091059106E3EAC5FEB7550080938505C5C4
:1001100037560080130606CFB706000293860658AE
:1001200039A083A2050023A0560091059106E3EAB9
:10013000C5FEB705000293850509370600021306C0
:10014000065821A023A005009105E3EDC5FEB700E8
:100150000080E780C016B7000080E780C016B700B7
:100160000080E780602173005010F5BF82803D431E
:100170002A876373C3029377F700BDEFADE59376EB
:1001800006FF3D8ABA960CC34CC30CC74CC7410747
:10019000E36BD7FE11E28280B306C3408A06970262
:1001A000000096966780A6002307B700A306B70055
:1001B0002306B700A305B7002305B700A304B700C3
:1001C0002304B700A303B7002303B700A302B700BB
:1001D0002302B700A301B7002301B700A300B700B3
:1001E0002300B700828093F5F50F93968500D58D97
:1001F00093960501D58D61B793962700970200006D
:1002000096968682E78086FA9680C1171D8F3E9665
:10021000E374C3F8A5B71D7186CEA2CCA6CACAC81E
:10022000CEC6D2C4D6C2DAC002CC02CE02D002D42C
:1002300002D602D802DA02DC02DEBD47230CF1004E
:100240000949230E21014AD2930700F8230AF1023B
:10025000A147A30AF1022C080A859D29370500024F
:1002600013040509B7170800938707401CC085448D
:1002700044C004C42326040023280400232A0400C5
:10028000232C0400232E0400232004022322040232
:10029000232404022326040223280402232A04021E
:1002A0008D471CDC232E0402232004042322040493
:1002B000232404042326040423280404232A0404F6
:1002C00023280406232A04062324040623260406DE
:1002D000232C04042322040623200406232E0404D2
:1002E000232C0406232E04062324040823280408B0
:1002F000232204082320040823260408F167938797
:100300000720232AF40813050509EF00301AB73730
:10031000080093870740232CF408232E9408230118
:10032000040AA301040AA302940A2300240B230253
:10033000040AA300940AB9472303F40A13058409A5
:10034000412D63010518370500021305050985478E
:100350002320F50C930785092322F50CB7470800E5
:10036000938707402324F50C130700102326E50C80
:100370002328F50C93070020232AF50C9305F00F92
:100380001305050CEF10C0323704000213040415E6
:1003900005499304803EA94AF949130BC012130A78
:1003A0002003CA852285EF00D04B2285EF00904DB7
:1003B0002685EF00703681452285EF00904A228520
:1003C000EF00504C2685EF0030354A87D6864E86A2
:1003D000CE852285EF10E0162285EF00B04A2685F3
:1003E000EF00903381452285EF00B0472285EF0072
:1003F00070494A88DA871307A005D6864E86CE85CF
:100400002285EF0070732285EF00D0472685EF002C
:10041000B03081452285EF00D0442285EF00904620
:10042000CA871307C003D2864E86CE852285EF1079
:10043000801F2285EF0010452685EF00F02D8145B5
:100440002285EF0010422285EF00D043CA871307B0
:100450007003D2864E86CE852285EF0050622285BB
:10046000EF0050422685EF00302B81452285EF00BA
:10047000503F2285EF001041014681452285EF0063
:10048000705FB74700809387870598433AC0D84389
:100490003AC29C473EC4CA860A86B7450080938507
:1004A00045662285EF0030572285EF00B03D268556
:1004B000EF00902681452285EF00B03A2285EF00BB
:1004C000703CC5B50146B745008093854565370545
:1004D000000213050509EF00F01FB5B5AA86854790
:1004E0006301F5028947630DF5020545B5EA370654
:1004F00006005C4A7D771307F73FF98F5CCA3685A3
:1005000082809305004037A70700130707123706BC
:1005100005001C5EF58F89EB7D1765FF0D45828018
:10052000856593850580C5B74111B7060600DC4A8D
:100530007D771307F73FF98FCD8FDCCA02C63247AC
:100540009307300663CCE7003E87B24785073EC677
:10055000B247E35CF7FE0145410182800145EDBFF2
:10056000828091476306F50463ECA7028547630424
:10057000F50489476314F502A146014537A7070032
:1005800013070712370605001C5EF58F9DE77D17E0
:1005900065FFB7070500C8D30D45828005458280F9
:1005A000A1476315F50089463685C9BF0545828098
:1005B00085460D45E1B79146D1B741118A05C98DF0
:1005C000B7070500CCD302C632479307300663CC89
:1005D000E7003E87B24785073EC6B247E35CF7FEB9
:1005E0000145410182800145EDBFAA86854763012F
:1005F000F5028947630DF5020545B5EE370606009D
:100600001C4A7D771307F73FF98F1CCA3685828015
:100610009305004037A707001307071237060500A8
:100620001C5EF58F89EB7D1765FF0D458280856522
:1006300093850580C5B74111370706001C4BFD7631
:100640009386F63FF58FCD8F1CCB232C0700854773
:100650001CCF02C632479307300663CCE7003E87C3
:10066000B24785073EC6B247E35CF7FE014541014C
:1006700082800145EDBF828011C585476302F50286
:100680003E858280094637A7070013070712B70681
:1006900005009C5EF18F99E77D1765FF0D4582800F
:1006A0002A86D5B74111B7070500C8D702C6324719
:1006B0009307300663CCE7003E87B24785073EC606
:1006C000B247E35CF7FE0145410182800145EDBF81
:1006D000011106CE22CC26CA4AC84EC652C4AA84EC
:1006E0002E84B7070600D84B719BD8CB984B719BD3
:1006F00098CBD44B03C7C5010A0793F636C0558F74
:10070000D8CB944B03C7D5011A071377073C93F650
:10071000F6C3558F98CBC845D1332A8A0C4403457C
:1007200044008135AA891848B707050098C358487E
:10073000D8C3184C98C708504D3D2A8948502D3FC2
:10074000AA8703470400058B19E7B7060600D84AB5
:1007500013672700D8CA03470400098B19E7B706B7
:100760000600D84A13671700D8CA03470400118B44
:1007700019E7B7060600984A1367270098CA034787
:100780000400218B19E7B7060600984A1367170083
:1007900098CA23A0440123A2340123A42401DCC469
:1007A0002685F2406244D2444249B249224A056158
:1007B0008280B7070500DC538D8B0947638BE70008
:1007C0003755E801130505806363F70082802165D2
:1007D000828021658280011106CE22CC2A8402C447
:1007E00002C61841B7370800630DF7001840B73745
:1007F0000800938707406308F70AF24062440561E6
:100800008280B707050013070010D8CF9D473EC070
:1008100085473EC28A8537450800EF10A00183470F
:10082000E4003547638AE7046362F7021D47638F7C
:10083000E7042D476396E702A1673EC08A853745E6
:10084000080013050540EF00F07E19A839476399A9
:10085000E700C1473EC08A8537450800EF00907D1C
:10086000A1473EC058408547630DF7028A8537454A
:100870000800EF00307C9DBF91673EC08A853745F8
:10088000080013050540EF00F07AD9BF9307000474
:100890003EC08A853755080013050580EF00907922
:1008A000C1B73EC4E1B7B707050013070020D8CF92
:1008B0009D473EC085473EC202C48A853745080031
:1008C00013050540EF0010778347E4003547638840
:1008D000E704636CF7001D476387E7042D47639BBC
:1008E000E700930700043EC031A039476394E70056
:1008F000C1473EC08A853745080013050540EF0013
:100900007073A1473EC0584085476302F7028A854D
:100910003745080013050540EF00D071F9BD930776
:1009200000023EC0C1BF930700083EC0E1B73EC40D
:10093000F9BF14419C4E370701FF7D17F98F9CCEFC
:100940001C41984FC205D98D8CCF828014419C4E9A
:1009500041771307F70FF98F9CCE1C41984FA205E2
:10096000D98D8CCF828018411C4F93F707F01CCF94
:100970001C41984FD98D8CCF828018415C4B93E7F6
:1009800047005CCB828018415C4B93E787005CCBCF
:100990008280011106CE22CC2A842308050018414A
:1009A0005C4BF99B5CCBC5372285C13F1C40DC43C7
:1009B0003EC6B247F240624405618280411106C6DC
:1009C00018415C4BF99B5CCBE937B2404101828016
:1009D00055C1411106C622C42A84F53B2285553FE4
:1009E0002285E93F58402DC77D171337170003466E
:1009F0009400834784008E079316E600D58F8346C4
:100A0000A4008A06D58F8346B4008606D58F834618
:100A1000C400A606D58FD98F0547630EE6020347AB
:100A2000E4002A07D98F18401CC385452285113759
:100A300081452285213F8145228535378347D40072
:100A400021470545637EF700B24022444101828080
:100A5000A304040069BF1167130707C0D98FE1B76A
:100A600018401CD7232E040023220402232A04004A
:100A70000145D9BF05458280BD472307F5001441D4
:100A80009C421167130707C0D98F9CC28280411115
:100A9000AA87230805000CCD50CD1841054610D774
:100AA0001041584A058B19E3054758CA014631A041
:100AB000130716006374D6023A86C84F0DC18C43E3
:100AC000D841118B75D7984F03470700D8CD984F61
:100AD000050798CFD84F7D17D8CFD9BF0D4598437C
:100AE000144313961601634A0600544BF99A54CBEB
:100AF0009443D84A13674700D8CA9C43DC433EC698
:100B0000B24741018280011106CE22CC2A8402C064
:100B100002C402C61841B717080093870740630D47
:100B2000F7001840B727080093870780630BF70A80
:100B3000F240624405618280B70705000947D8CFBB
:100B40005C4181C7930700043EC01C4489C78247AB
:100B500093E707023EC03C5C89C7824793E70710D2
:100B60003EC07C5C89C7824793E707083EC0854743
:100B70003EC28A8537450800EF00D04B5C58FD1710
:100B800093B7170096073EC00327C40801C793E731
:100B900007043EC08327840889C782470567D98F29
:100BA0003EC08327040989C782470967D98F3EC0A1
:100BB0008327440889C782471167D98F3EC083279E
:100BC000040889C782472167D98F3EC089473EC242
:100BD00002C48A853745080013050540EF0090459B
:100BE00089B7B70705001147D8CF5C4089C782474E
:100BF00093E707203EC01C4489C7824793E707104C
:100C00003EC03C5C99C78247056713070780D98FB0
:100C10003EC07C5C89C7824793E707403EC085475A
:100C20003EC202C48A853745080013050540EF001F
:100C300070405C58FD1793B717009A073EC0032712
:100C4000C40801C793E707083EC08327840889C703
:100C5000824793E717003EC08327040989C782476C
:100C600093E727003EC08327440889C7824793E75C
:100C700047003EC08327040889C7824793E787005F
:100C80003EC089473EC202C48A8537550800130515
:100C90000580EF00303A69BD1C41C84F5981058974
:100CA00082801C41C84F558105898280411106C64A
:100CB00022C42A8418411C43F99B1CC3A9355844FB
:100CC0009317C7008566F58F098B01C7370700109A
:100CD000D98F184819C393E70740584819C393E7B9
:100CE0000720384C19C393E70710784C19C393E7D2
:100CF0000708385019C393E70704785019C393E7DE
:100D00000702385419C393E7070118401CC31C4C51
:100D1000B337F000CE07584C01C737070400D98F0E
:100D2000185001C737070200D98F585019C34167BF
:100D3000D98F185419C32167D98F585419C3116713
:100D4000D98F185819C30967D98F585809C705672B
:100D500013070780D98F185C9376270099C293E711
:100D60000740058B2607D98F585C19C393E70710F6
:100D7000785419C393E7070418405CC33C40B33769
:100D8000F000B207785C19C393E70720784019C3D5
:100D900093E70710384419C393E70708784419C349
:100DA00093E70704384819C393E78700784819C3C5
:100DB00093E74700385819C393E70740785819C399
:100DC00093E7170018401CC78327840891C7184071
:100DD0005C5793E707105CD7E93AB70705009843DB
:100DE0009C47144005073355E50285073355F50246
:100DF000832744093355F502C8C61C40D4473D47F4
:100E00000545637FD702584009C798431367870099
:100E100098C31C4491C718401C4393E747001CC368
:100E200018401C4393E717001CC35C4081C7228510
:100E30008D3D75DD084409C52285B93D75DD014547
:100E4000B2402244410182801C41C84F198105896A
:100E50008280011106CE22CC26CA4AC84EC62A89F3
:100E6000B2841DEE03274509B7470F009387072477
:100E7000B3D7E70258458546AD44630BD700894692
:100E8000A5446307D7001337170093143700B694AF
:100E90000327090305CF8546630CD702B384F40208
:100EA000832709008CD7BD20AA894A85713F2A84EF
:100EB00011E58D2033053541E3F9A4FE2285F2408A
:100EC0006244D2444249B249056182808504F9B73F
:100ED0008904E9B7011106CE22CC26CA2E84838567
:100EE00005009DC54AC84EC62A89B28905048544B5
:100EF0004E864A85B93FE98C05048305F4FFEDF978
:100F00004249B2492685F2406244D244056182805A
:100F10008544CDBF01458280411106C697F0FF810F
:100F2000E7804066B24041018280797106D622D4C2
:100F30002A8402CA02CC02CE02C002C202C402C685
:100F4000B70705000567D8CF0967D8CF1167D8CF95
:100F50004167D8CF5C453EC80C080845EF00900DAE
:100F60005C483EC002C202C48A850848EF00900C6B
:100F7000B250225445618280797106D622D426D29D
:100F80004ECEAA842E84B2891C41A9C305473A8556
:100F9000639BE70403C7050093070004630BF70492
:100FA000328531C24AD052CC56CA5AC85EC6138462
:100FB00015009309F6FF93D919000149930B000C12
:100FC000854A374B0F00130B0B24ADA037470F009A
:100FD0001307072493160601C1822E868355C50187
:100FE000084DEF007025B25022549254F2494561E9
:100FF00082800546CC448844EF00D012B7460F00EB
:10100000938606241386F9FF93051400C8404134E3
:10101000D9BF0146CC448844EF00D010DA8656860A
:10102000D285C840AD3405E9930719000904630E61
:1010300039013E89228A8347F4FFE39C77FD568677
:10104000CC448844EF00100ED1BF0259624AD24A04
:10105000424BB24B49BF0259624AD24A424BB24B51
:1010600059B7411106C6B335B000B305B0401306F9
:10107000004093F5F50F13051502EFF04F8FB240C6
:1010800041018280411106C61306104093050502F6
:10109000E535B2404101828093978501E18763CABB
:1010A00007029307F00363E6C70285476384F602ED
:1010B000935736009E078505AE973E951D8A854756
:1010C000B397C70093C7F7FF03470502F98F2300C3
:1010D000F5028280935736009E078505AE973E95B0
:1010E0001D8A8547B397C70003470502D98F2300A0
:1010F000F50282805D7186C62EC6938705FE93F742
:10110000F70F1307E0056367F70ECAC052DC5AD821
:101110006AD06ECE2A89328D368B1C46A9CFAE9707
:1011200083CD07FE035A29423307BA01930700080B
:10113000014563C5E70CA6C283471D00835449429D
:10114000B386F400130700046340D70C3EC4C1CB40
:10115000A2C44EDE56DA5ED662D466D2933B1B0042
:101160003247130C07FE330CFC02060C93F4F40F09
:10117000814CEE8AB1A0834D06006DB7B3058A009D
:10118000DE86268693F5F50F4A8539370504630117
:101190005403B397890013970701E35107FEB30582
:1011A0008A00DA86268693F5F50F4A85F535F9BF6C
:1011B000850C090C850493F4F40FA247638BFC00A3
:1011C00083274D00E29783D90700E3830DFE014496
:1011D000C9B72644F259D25AB25B225C925CD29DC6
:1011E0002311B943324596440649625A425B025D77
:1011F000F24D11A00145B640616182800649625AF4
:10120000425B025DF24DC5BF96440649625A425B9D
:10121000025DF24DCDB7797106D622D42E84838536
:101220000500A1C526D24AD04ECE52CC2A89B2841E
:10123000B6890A8A9C403EC0DC403EC29C443EC403
:10124000CE8652864A857D3583050400631BB50032
:10125000050483050400F9FD92540259F249624ADB
:1012600029A092540259F249624A2E85B250225462
:10127000456182802311B5422312C54282803971B3
:1012800006DE22DC26DA4AD84ED652D456D25AD0BE
:101290005ECE62CC66CA6AC86EC6AA8A2E84B28442
:1012A000368ABA8C3E8BB389B64093D7F941B3C91D
:1012B0003701B389F940330CC7409357FC4133CC15
:1012C0008701330CFC407D5D63F3D500054DFD5D6A
:1012D00063F39401854D33898941DA866686D28528
:1012E00056855D3BB30B80412DA0DA862686A2850C
:1012F00056855D339317190063D7FB003309894185
:101300006A941374F40F63D637014E99EE9493F4F4
:10131000F40FE31C44FDE39A94FDF2506254D2545E
:101320004259B259225A925A025BF24B624CD24C49
:10133000424DB24D216182805D7186C65AD85ED61B
:101340006AD02A8DAE8B328B36C23E8542C093075F
:10135000801663F8A70293573500B776C1169386B7
:1013600076C1B3B7D702898393068016B387D702B5
:10137000B307F54013950701418193960701C18298
:10138000C5C2AA869307801663F9E7029357370010
:101390003776C116130676C1B3B7C7028983130621
:1013A0008016B387C702B307F7401397070141833D
:1013B000139607014182630B0616A2C44EDE62D467
:1013C00066D2B767666693877766B319F70293D9D3
:1013D0002940139C3600369C0A0C135C3C00B777FE
:1013E000C116938777C1333CFC02135C2C00EF20BD
:1013F000D0312A842AC66285EF203031AA85228521
:10140000EF10D060AA8C63F98913A6C2CAC052DC5F
:1014100056DA6ECEB707000283AD07006EC4B1A8DE
:1014200013058016B9BF4E85EF20302EE685EF20DC
:10143000A019A245EF2040192A8AEF00C07DAA8A90
:101440005285EF006076AA852285EF20E017EF2015
:101450003018330AAB00137AFA0FD6852285EF20B5
:10146000A016EF20F016B386AB008247528793F6A2
:10147000F60F4A86A6856A8519354E85EF20F02835
:10148000E685EF206014EE85EF2000142A89EF0036
:101490008078AA841245EF20B0192A84AA8526856F
:1014A000EF208012EF20D012B384AB0093F4F40F3E
:1014B0004A85DD2DAA852285EF200011EF205011ED
:1014C0003309AB001379F90F8509E31E3CF5B70723
:1014D000000283A507003245EF20000FAA89EF0024
:1014E00080732A8A4E85C925AA852285EF20C00DE2
:1014F000EF20100E2A9B137BFB0FD2852285EF2055
:10150000A00CEF20F00CB386AB0082475A8793F60D
:10151000F60F4A86A6856A859D3326449644064979
:10152000F259625AD25A225C925CF24DB640425B4A
:10153000B25B025D616182802644F259225C925C5A
:10154000F5B793978501E18763CE070C797106D6CD
:1015500052CC56CA62C466C22A8A2E8CB28CBA8A0F
:101560009307F00363E9C70A22D426D24AD04ECEAD
:101570005AC85EC66AC0B309D040054B330BDB4086
:10158000060B814B29A0DA8763C969073E8B93F468
:10159000F90F33099C401379F90F13F4FB0F330D46
:1015A0009401137DFD0FD6866A86CA855285ED3477
:1015B000E29493F4F40FD6866A86A6855285E93CB8
:1015C00033848C401374F40FD6862286A685528508
:1015D000E134D6862286CA8552857D3CE3C56BFB05
:1015E000850B93971B008507DA9733073041E31D7E
:1015F00077F963C46901014B41BF8509139719004D
:101600000507BA97E35430F9225492540259F2492B
:10161000424BB24B024DB250624AD24A224C924CDB
:10162000456182808280011106CE22CC26CA4AC83A
:101630004EC652C456C2AA842E89B289B68A3A844A
:101640003E8A32872D39D2872287D6864E86D68526
:1016500026853531D2872287CA862286D685268579
:101660003939D2874E87CA862286CA8526850139AE
:10167000F2406244D2444249B249224A924A056148
:101680008280011106CE9307E00A81C59307F00A14
:101690008545130700082316E100A306F100A30304
:1016A000B54209466C00EFF03F8DF2400561828043
:1016B000397106DE22DC26DA2A84AE841841854799
:1016C0006301F710814522856D3F930700F82304DD
:1016D000F10013070002A304E1002305F100A305B4
:1016E00001002306F100130780FAA306E100230797
:1016F000F1001307F003A307E1002308F10013072B
:1017000030FDA308E1002309F100A3090100230A29
:10171000F10013070004A30AE100230BF1001307F3
:1017200010FAA30BE100230CF100130780FCA30CBB
:10173000E100230DF1001307A0FDA30DE100230E2E
:10174000F1004947A30EE100230FF100130710F841
:10175000A30FE1002300F102A30091022301F10293
:10176000130740FAA301E1022302F102130760FA12
:10177000A302E1022303F102130750FDA303E102D8
:101780002304F102A304F1022305F1021307D0F8A8
:10179000A305E1022306F1025147A306E102230754
:1017A000F1029307F0FAA307F102130680022C005E
:1017B0002285EFF06FFC21C9F2506254D2542161AE
:1017C00082804AD8EFF06FF65C409C43054923AA1B
:1017D00027012285EFF06FF54840EFF0EFA90146B1
:1017E0004C48084881222945EFF00FF34A864C48BF
:1017F00008480D2A2945EFF02FF213054006EFF0B7
:10180000AFF14259C1B5930700042300F4028545A6
:101810002285853D55F181452285EFF09F84228503
:10182000EFF05F862311044223120442854723030D
:10183000F44259B7AA8EB74708009387074063055B
:10184000F508B757080093870780630CF508B7477A
:101850000800630CF50A0545828023A60E0119A035
:1018600023A40E0183260300FD8EC8453315C50051
:10187000C98E2320D30083260E00F58F9445B3969E
:10188000C600D58F2320FE0005079C4133D5E70015
:101890001DC93318EF00B377F800FDD713161700F2
:1018A000B397C20093C7F7FFD4418D8AB396C600A1
:1018B00003A508007D8DC98E23A0D800D441E38EF6
:1018C000F6F9D9DE45B78280371E0500130E4EC1EA
:1018D00037130500130303C1B71805009388C8C068
:1018E00029A8371E0500130E0EC237130500130377
:1018F000C3C1B7180500938888C19C410147054FB3
:101900008D42914FD9F73E858280371E0500130E18
:101910008EC037130500130343C0B7180500938822
:1019200008C0E1BF19E24CC182800CC18280144121
:10193000DC42370700FE7D17F98FDCC21C41D8431B
:10194000E605D98DCCC3828089C91C419C4FFD1509
:1019500093F70704F5DB0145828085477CC50D457B
:10196000828089C91C419C4FFD1593F70708F5DB60
:101970000145828085477CC50D458280AA8621A8C5
:101980008947FCC6054582808D47FCC60545828097
:10199000FD15898B9DE79DC19C429C4F13F5070166
:1019A00065F113F707306DD713F7071071FF13F7C1
:1019B000072079DF9147FCC6054582808547FCC634
:1019C0000D45828018415C4393F707C05CC39307C1
:1019D000F00763EFB7001441DC427D771307F77F10
:1019E000F98FDCC21C41D8438605D98DCCC38280D7
:1019F0001441DC42056713070780D98FDCC214410C
:101A0000DC427D777D17F98FDCC21C41D84393F50A
:101A1000F53FD98DCCC382802A8614412167884E38
:101A2000798D11C99387F5FF99C1BE85CDBF8547D3
:101A30007CC60D4582808280011106CE22CC26CA4A
:101A40004AC84EC652C456C2AA84AE8932843A8964
:101A50009307F00F63FFD70A10415C42370701FF7D
:101A60007D17F98F5CC218415C433706FF00D18FA8
:101A70005CC3938616F0139A0601135A0A011841A3
:101A80005C43B7060001D58F5CC3930AF00FCE8587
:101A900026850D3F98405C4393F7F7BF5CC39840A1
:101AA0005C438966D58F5CC3638D0A08B309540112
:101AB000CA852685E1354DE19C408346040094D7D4
:101AC0000504E39789FE63000A08CA852685513D0F
:101AD00041E59307F00F63FE47099440DC42370766
:101AE00001FF7D17F98FDCC298405C43B706FF0009
:101AF000D58F5CC3130A1AF0420A135A0A019840A0
:101B00005C43B7060001D58F5CC3930AF00F4E8487
:101B100061BFB68A10415C42370701FF7D17F98F1C
:101B20005CC21C41D843C206D98ED4C31441DC42E6
:101B3000370700FF7D17F98FDCC24C51CD3B014ABE
:101B4000B9B7A28949B79C40DC4313976700635E2D
:101B50000700CA852685C935F2406244D24442490D
:101B6000B249224A924A05618280CA852685E93BAC
:101B7000E5B7D28A9440DC42370701FF7D17F98F21
:101B8000DCC29C40D843420A336AEA0023A24701E0
:101B90009440DC42370700FF7D17F98FDCC2CC5040
:101BA00026857133014AA5B7011122CC3704008084
:101BB0009307F4FF3717493F06CEE98F130787FDD8
:101BC000637CF7023707807F63E9E700AA85EF109F
:101BD000D050F2406244056182802C00E12E937760
:101BE000350005462245B2456381C7020947638B2C
:101BF000E70085E34128F1BF6244F240930500000D
:101C0000056149A04120218DE9B73E86BD2C218D7B
:101C1000C9B7A52C7DBF011122CC370400809307E2
:101C2000F4FF3717493F06CEE98F130787FD637C22
:101C3000F7023707807F63E9E700AA85EF10F049D4
:101C4000F2406244056182802C00AD269377350016
:101C500005462245B2456382C7020947638CE70007
:101C600099EF2524F1BF6244F2400146930500003C
:101C7000056121AC192C218DE1B72920D1B719209C
:101C8000218D7DBF011126CA931415004AC852C484
:101C900006CE22CC4EC68580B70700322A892E8A0E
:101CA00063F8F40CEF20C0126305051CCA854A8551
:101CB000EF10901197E5FF8183A5C5352A84EF10B9
:101CC000B01097E5FF8183A52535EF10C007A285E9
:101CD000EF10900F97E5FF8183A54534EF10F03F9B
:101CE000A285EF10700E97E5FF8183A56533EF1095
:101CF0008005A285EF10500D97E5FF8183A5853201
:101D0000EF10B03DA285EF10300C97E5FF8183A561
:101D1000A531EF104003A285EF10100BAA8997E5BB
:101D2000FF8183A5A5302285EF10100AAA87CE85F2
:101D300022853E84EF105009AA84D2854A85EF108F
:101D4000B008AA852685EF105039AA852285EF10A4
:101D5000D038AA8517E5FF810325852BEF10F037D2
:101D6000F2406244D2444249B249224A056182802B
:101D7000AA85EF10700597E5FF8183A5A5292A8420
:101D8000EF10900497E5FF8183A50529EF00B07B54
:101D9000A285EF10700397E5FF8183A52528EF103A
:101DA000D033A285EF10500297E5FF8183A5452728
:101DB000EF007079A285EF10300197E5FF8183A5D0
:101DC0006526EF109031A285EF10100097E5FF8196
:101DD00083A58525EF003077A285EF10E07EB7A7B9
:101DE000993E93879799AA89E3FB97F256C2B70762
:101DF000483F63E79706B70700FF17E5FF81032514
:101E00002521BE94A685EF10502DAA8A97E5FF8163
:101E100083A5C5212285EF10207BA685EF10F02B2E
:101E2000AA87CE8522853E84EF10007AAA84D285C7
:101E30004A85EF106079AA852685EF10102AAA85B9
:101E40002285EF109029AA855685EF101029F240BF
:101E50006244924AD2444249B249224A0561828090
:101E600097EAFF8183AA4A1A97E4FF8183A4041AA0
:101E700071BFF240624417E5FF8103256519D24422
:101E80004249B249224A0561828001119317150027
:101E900022CC4AC856C206CE8583370700322A8430
:101EA0002E89B28A63F7E700EF109072AA87228525
:101EB000C1CFA285228526CA4EC652C4EF10C0707B
:101EC000AA84AA852285EF10207097E5FF8183A55B
:101ED0002516AA892685EF10206F97E5FF8183A537
:101EE0006515EF10901FA685EF10006E97E5FF8136
:101EF00083A58514EF003065A685EF10E06C97E5AB
:101F0000FF8183A5A513EF10501DA685EF10C06BB0
:101F100097E5FF8183A5C512EF00F0622A8A639BD3
:101F20000A02AA852685EF10206A97E5FF8183A51E
:101F30006511EF10901ACE85EF100069A285EF00B1
:101F40009060D244B249224AF24062444249924AE5
:101F50000561828097E5FF8183A5450D4A85EF10D5
:101F6000A066AA87D2854E853E8AEF10E065AA85D5
:101F70005285EF109016A685EF100065CA85EF1008
:101F8000D01597E5FF8183A5E50BAA844E85EF1058
:101F9000A063AA852685EF00105BAA852285EF1035
:101FA000D013F2406244D244B249224A4249924A92
:101FB00005618280397113171500B717493F22DC7C
:101FC0004AD84ED606DE26DA13591700938787FDC6
:101FD0002A84AE8963F62713B7D7164052D4938765
:101FE00037BE2A8A63E52707B7070080C11797E540
:101FF000FF8183A5650533F4A700635FA030EF1070
:10200000D00DB717C93F938707FDAA846302F41266
:1020100097E5FF8183A58503EF10300C2A84A28504
:102020002685EF10900B97E5FF8183A52502EF1021
:10203000D00A225A23A0890023A2A9008544F25085
:1020400062544259B2592685D25421618280B71711
:102050004943938707F863F62711B707807F637FAB
:10206000F90A56D2935A7941938AAAF793977A013B
:102070003309F9404A85EF10B055EF10705BAA851F
:102080004A852EC2EF10700597E5FF8183A585FD77
:10209000EF108053AA84EF10B053EF1070592A84C8
:1020A000A285268522C4EF10500397E5FF8183A502
:1020B00065FBEF106051930500002AC6EF10404108
:1020C0008D4609E9228593050000EF106040B33684
:1020D000A00085065686972700009387E761094789
:1020E000CE8548007D24AA8463410A1CF2506254C4
:1020F000225A925A4259B2592685D254216182807D
:1021000023A0A90093070000DCC18144F25062546F
:102110004259B2592685D25421618280AA85EF1096
:10212000C07B23A2A900225A23A0A9008144F9BFA1
:1021300097E5FF8183A5C5F1EF10207A97E5FF8130
:1021400083A545F1AA84EF1040792A84A2852685CB
:10215000EF10A07897E5FF8183A5C5EFEF10E0773A
:10216000C9BD56D25AD05ECE62CC0D2497E5FF8110
:1021700083A585EEAA8AEF10204597E5FF8183A508
:10218000E5EAEF00503CEF10B044AA84EF10504A4B
:1021900097E5FF8183A545EB2A8CEF10E042AA85E5
:1021A0005685EF10807397E5FF8183A525EAAA8BFA
:1021B0006285EF1060412A8BDA855E85EF10E07151
:1021C000FD47AA8A63C797061387F4FF0A07972774
:1021D00000009387674ABA979843B70700809387B0
:1021E00007F0E18F6387E70423A05901D6855E8558
:1021F000EF10A06EDA85EF10406E23A2A900635D98
:102200000A00B7070080B3CAFA003D8DB3049040BE
:1022100023A0590123A2A900F2506254225A925AD3
:10222000025BF24B624C4259B2592685D25421616D
:10223000828093D77A011354794193F7F70FB3074C
:10224000F4402147E352F7FA97E5FF8183A545E083
:102250006285EF106037AA8AAA855E85EF10E06775
:102260002A89CA855E85EF104067D685EF10E06643
:1022700097E5FF8183A505DEAA8A6285EF10C03449
:10228000D685EF1080652A8BDA854A85EF10E064E9
:102290009357750193F7F70F1D8CE547AA8A63C71B
:1022A000870223A0A900CA8B91B703A7090083A7BF
:1022B0004900B7060080358FB58F225A925AB30471
:1022C000A04023A0E90023A2F90095BB97E5FF8178
:1022D00083A5C5D86285EF10202F2A84AA854A8558
:1022E000EF10A05FAA8BDE854A85EF10005FA28504
:1022F000EF10A05E97E5FF8183A585D62A846285CD
:10230000EF10802CA285EF10405D2A8BDA855E8568
:10231000EF10A05CAA8AC9BDEF00F022B717C93F31
:10232000938707FDAA84630AF40297E5FF8183A5DA
:10233000E5D1EF0050212A84A2852685EF10E059CF
:1023400097E5FF8183A585D0EF00F01F225A23A0D7
:10235000890023A2A900FD54DDB197E5FF8183A583
:1023600025CFEF00501E97E5FF8183A5A5CEAA8457
:10237000EF00701D2A84A2852685EF10005697E590
:10238000FF8183A525CDEF00101CC9B70605058187
:1023900082806171131827003AD2172700001307B3
:1023A000E7692324811A232861193684232291198D
:1023B0002320A11936CA42972326111A2322911AE3
:1023C0002320211B232E3119232C4119232A511993
:1023D0002326711923248119232EB11732D6F156E1
:1023E0002ED03ECC032B07002A8D930CF4FF634BB9
:1023F000D65C1307D6FF9357F7419D8BBA978D870D
:102400003EC885078E073ED4A2563257B3079B01BC
:10241000158FC2463384964163CA07028507B38984
:102420008700E2471319240004013E993A8A1305F4
:1024300000006346040003250900EF10701F88C0E8
:10244000050491041109E31434FF5287930A011221
:10245000634C0B0293972C00130A010893844700E6
:102460003E9AD247930A0112EA94D68B668CB30D3A
:10247000FB0063D50C4A9307000023A0FB00050C6A
:10248000910B110AE317BCFFD24693172B00130CD4
:10249000C1023E9C93878702939426008A97B706D1
:1024A00000403ECE9387F6FFEA943EC2DA8B3AC0F4
:1024B000139A2B00B3874A0183A907006351700761
:1024C000924713090103DE978A07B38DFA0097E755
:1024D000FF81938767B98C434E851109EF10C00EB9
:1024E000EF10100FEF10D01497E7FF81938787B795
:1024F0008C432A84EF10400DAA854E85EF10E03DF5
:10250000EF10100D83A50D00AA87232EF9FE22855A
:10251000EF007003EE87AA89F11DE39AFAFA0249E7
:102520004E85CA85EF00207197E7FF81938707B436
:102530008C432A84EF104009112597E7FF81938788
:1025400027B38C43EF104008AA852285EF10E038AE
:102550002A84EF10F007AA89EF10900DAA85228532
:10256000EF10A0372A84CA86635820119387FBFF97
:102570008A07938707038A979043214733072741A8
:10258000B355E6403397E5001D493307E64033096C
:10259000D94098C333592741AE99634220379305F8
:1025A00000002285EF00D0726313051863507B038F
:1025B00092470147DE978A07938707038A979443D8
:1025C000F117558FE39D87FF6316073893172B008C
:1025D0008A97DC5793851B002E8A639F07327247C8
:1025E0008547144371178507EDDEB38DFB00D24795
:1025F00056C65AC4B3867701C2478A06B389B70064
:102600001C01B38BD700E2478A053389BA008A09D7
:10261000DE8ABE99CA8B03A50900EF10700123A0C2
:10262000AA0063C00C04568B6A891304000083253A
:102630000B00032509001109711BEF00F078AA8532
:10264000228511272A84E31499FE23A08B00050A12
:102650009109910A910BE3D04DFD224BB24AEE8BCA
:1026600081BD1304000023A08B00050A9109910A83
:10267000910BE3D24DFBD5B78247638A072497E7D6
:10268000FF819387A79A8C430149EF00506AE34882
:1026900005F085090949635B7025C25D1C183E85FC
:1026A0000146638E0D20930500103387B54118C194
:1026B0009305F00F29A098433387E54098C305069A
:1026C0009107E34A76FF854D02476352E002854752
:1026D000630FF72C8947631CF7009387FBFF8A077A
:1026E000938707038A9790431376F60390C389472D
:1026F000E317F9EA17E5FF8103258591A285EF101D
:10270000C01D2A84E38D0DE897E7FF8193874790EA
:10271000824588430D23AA852285EF10001C2A8458
:10272000930500002285EF00B05AE30105E8325717
:10273000A2572285B385E740FD2997E4FF8183A452
:1027400064922A84A685EF00905E024763430536B3
:1027500097E5FF8183A5459122850A9AEF00D0660F
:10276000EF100067EF10C06CA685AA84EF00D0655B
:10277000AA852285EF106016EF1080650247232896
:10278000AA02268521073AC0938C1B00EF104064F3
:1027900013942C0002470A9408D897E7FF81938787
:1027A00027878843BA8541292A8463C40C1E139D58
:1027B0002C0017EAFF81032A2A8BEA9A93070D035C
:1027C000D68BB38427008840F11BEF106066A2858A
:1027D000EF00905F23A2AB00D2852285EF00D05E90
:1027E000A68718182A84F114E31FF7FC930D010D36
:1027F0004AC06E8C814B63460B04172900001309F5
:102800002921568A13040000814463C19B02832559
:102810000A000325090085041109EF00F05AAA8572
:1028200022851523110A2A84E3519BFE23208C0064
:10283000F11A110C93871B00638F9B01BE8BE35E23
:102840000BFA1304000023208C00F11A110C93875B
:102850001B00E3959BFF925709470249634EF71A05
:102860006E9D6345F0161305000081EF83250D0072
:10287000D929EA87711DE39BFDFE63120926825761
:1028800088C38320C11A0324811A8324411A03298F
:10289000011A032A8119832A4119032B0119832B59
:1028A000C118032C8118832C4118032D0118832D86
:1028B000C11713F579008329C1195D61828005066E
:1028C0009107E35376E183AD07003E85D9BB93972B
:1028D0002B008A9703A9C70213597940E35120CDF1
:1028E0008509E34C70DB8947E31BF9CA17D5FF81E3
:1028F00003250572A285EF00507E2A844DB185091B
:10290000E34D70D9824605466380C620094663863A
:10291000C61EE316C9C8D9BFAE8DD1B93AC0D28997
:102920006A891304000083A5090003250900110921
:10293000F119EF007049AA85228531212A84E31418
:1029400099FE23A0AB00050C910B110AE319BCFD05
:1029500002471DBE938CFBFF93962C008A9602477C
:10296000945A6117E39B06E293962B0093878602A5
:10297000B38627009C42F116FD1C6117E5DF97D74F
:10298000FF819387E7688843BA8575242A84E3D05A
:102990000CE21257894763CDE7166342E01892575D
:1029A00013050000E39F07ECE30B09EC0DAA9387E6
:1029B000FBFF8A07938707038A9790431376F607EE
:1029C00090C335B3A1473ED402C83DBC4E4A130460
:1029D0000000228583250D00BD26EA87711DE39B3B
:1029E000FDFE2A846311090E5285A285EF00F06E68
:1029F000825780C3638F0C00C40905448C400504D2
:102A000091049126E3DC8CFE63050900B707008082
:102A10003D8D8257C8C3B5B592570D47E393E7E69E
:102A2000638C0C0EB38AAD011304CDFF83A40A009E
:102A30006E94228A032B0A002685268CDA852126AD
:102A4000AA84A6855A85EF005069E285ED2CD28BC9
:102A500023209A002322AA00711AE39DBBFD05479B
:102A6000638CEC0A83A40A00032A04002685268BC3
:102A7000D285D12CAA84A6855285EF001066DA850E
:102A8000D92448C004C07114E3908DFE938C4D008E
:102A90001305000083A50A00F11A7524E39C5CFF6E
:102AA0004E47DE4763110904825698C2DCC288C6CD
:102AB000C9BB22853AC00A9AEF1080310247DE8CEA
:102AC0002328AA02D9B9825737070080298F98C3D3
:102AD0005285A285EF007060E3900CF205BFB70746
:102AE00000803D8D69BBB7060080358FB58F358D71
:102AF000825698C2DCC288C669B31377F70398C3BD
:102B00008247E31EF9A8DDB31377F70798C3E1BB4B
:102B100012578D47E317F7D61305000051B74E45FE
:102B20006309090097D7FF8183A7C75402571CC3C5
:102B3000F1BD82571307000098C3E1BD011193173F
:102B4000150026CA93D4870122CC4AC806CE4EC6A9
:102B5000938414F859472A8413D9170063409706C1
:102B600056C252C4AA8A63CB0406370A80001309EE
:102B7000FAFF33599940B377A900AA89BDCF97D5F9
:102B8000FF8183A5A54FC12293050000EF00301AF5
:102B90006355A00663560400335A9A40B30A8A006C
:102BA0001349F9FFB3795901224A924AF24062442B
:102BB000D24442494E85B24905618280B707807F81
:102BC000AA89E365F9FEAA85BD2AF2406244AA8972
:102BD000D24442494E85B2490561828097D5FF8132
:102BE00083A5C5498D2293050000EF005014635062
:102BF000A0029309000063400402F2406244224AAA
:102C0000924AD24442494E85B24905618280224AA5
:102C1000924AA28961BF6319090097D9FF8183A9EC
:102C20006945224A924A59B797D9FF8183A9C94475
:102C3000224A924AA5BF93161500AA87BDCA411120
:102C400013D7160006C6B706807F637FD704935656
:102C5000750122C493F6F60F2E84A9EE97D5FF8155
:102C600083A50542EF0050165177130707CBAA87BB
:102C70006349E40A13577541B1661377F70F9386DA
:102C800006351D1763DE860217D5FF810325053F34
:102C900063C3070697D5FF8183A5453EEF00D01299
:102CA0002244B24041018280AA857128B24041018C
:102CB00082808280B166938606355D83E3C686FC9A
:102CC000B30587001307E00FE340B7FC6345B00688
:102CD000295763CEE50237078080938795017D17DA
:102CE00097D5FF8183A5C53ADE07798D5D8DEF000D
:102CF000B00D224465BF17D5FF810325E53897D570
:102D0000FF8183A5A537EF00300C224459BF17D5AA
:102D1000FF810325253763D6070017D5FF810325DB
:102D2000E53697D5FF8183A5E535EF00F009B24080
:102D3000224441018280B7078080FD17DE057D8D2A
:102D400022444D8DA5B7B706800001119357750138
:102D500013D67501FD1633F7A60026CA4AC81376A6
:102D6000F60F13F9F70F9354F50106CE33F5B600BD
:102D7000FD81B307C9401313370093183500638DE5
:102D8000B40A635AF008630F06109306F00F63024B
:102D9000D91E37070004B3E8E8006D476350F728F1
:102DA0009307F3FF13975700635C071A22CC7D53F8
:102DB0009316630013D466002285EF10E0226D1590
:102DC000B316A40063592521370300FC7D1313F7C4
:102DD0007600B307A94033F3660063050742BD8A56
:102DE000114762446381E618110313175300635CB3
:102DF000071685071307F00F26886398E70C3E85B2
:102E00000147F2405E05598D9317F801D2444249BB
:102E10005D8D05618280E1C3B3072641631F091000
:102E2000630203301387F7FF630C07369306F00F36
:102E30006389D732BA8711AA26886357F01469EEDE
:102E4000638308129386F7FF6385062E1306F00F3F
:102E50006381C712ED4763C8D70CB687130700021A
:102E60001D8F3397E8003337E000B3D7F800D98FD0
:102E70003E939317530063D5071C9307190013075C
:102E8000F00FE38EE7F6B706007E13571300FD162A
:102E9000758F137313003363670013777300631325
:102EA0000716B5A26381080C9386F7FF63820610AC
:102EB0001306F00F638FC70AB687C5B51317530003
:102EC000635E073262442688854713F5F70F1317B0
:102ED000630025833DB79306190093F6E60F6395CB
:102EE000061A631D09086308032A6382080433076E
:102EF00013419316570063D60628338368402E8803
:102F000063030328931753000545E3C207FC1357D7
:102F10003300AE84814721A89306F00F630BD904D8
:102F20006D476351F718130753000D83CA872607AF
:102F3000258313F5F70F2688E9B51307F00F630211
:102F4000E622370700043363E3006D476351F71649
:102F50009387F8FF13975700634A0722AE8432899C
:102F600013834700CA879306F00F13573300E3908B
:102F7000D7FC26881305F00FE30507E80148130581
:102F8000F00F37074000B5BDF9C7B30726416312FC
:102F90000916630A03181387F7FF630C07189306D3
:102FA000F00F6381D71CED4763C8E71CBA87A9AA55
:102FB0003307134193165700B707000463DB061A63
:102FC000FD1722CC3374F7002285EF10E0016D1558
:102FD000B316A4000549B307254185071303000272
:102FE0003303F3403393660033336000B3D6F60007
:102FF00033E36600630A0316137773008147E30F18
:1030000007EA62441377F3009146E31FD7DC1317F6
:103010005300E34007DE1357330011BF13070002CC
:103020001D8F3397E8003337E000B3D7F800D98F0E
:103030003303F3409317530063D4070022CC8DBBB6
:10304000937773006382071C1377F3009146CA8756
:10305000E31CD7D809BF9307190013F6E70F3DE625
:103060006317091663090316638A081633071301E9
:103070009317570063DA0716B707801F0D83FD17F4
:103080007D8F758F0545B5BB22CC33041341931753
:10309000540063CC0708E31104D26244014801459F
:1030A000014785B337070004B3E8E80045BB1307C1
:1030B00000021D8F3317E300B357F3003337E000EE
:1030C000D98F3289AE843383F840ADB71307F00F40
:1030D000E387E7D23307130105839376770081CA2C
:1030E00011469376F7003303C700E39EC6E60D83CF
:1030F0003DBD1307F00F6307E6066D47634EF70605
:10310000370700043363E300130700021D8F3317F2
:10311000E300B357F3003337E000D98F32893383AC
:10312000170181BBAE8446833DBD33846840AE84C5
:1031300061B1B307130113975700635A070A8583D8
:103140003707007E7D1793F677007D8FCDC693F607
:10315000F70011463303C7008947E396C6E00D83A5
:10316000F9B3AE842A8731B5624426880145014708
:1031700049B90D83854765BB138758000D83B28716
:103180007DB335F7014801450147A5B922CC328905
:10319000AE847D5331B9E38708FEAE842A8741BBF4
:1031A0003387684093165700B707000463DA0602B6
:1031B000FD1722CC3374F70022852EC6EF00D062B3
:1031C000B2456D15B316A400AE84054929B5E317C1
:1031D00003DA2A8779BB2A87E38708FA814781BB0C
:1031E0000D83AE848547A1B30D83814789B313D77F
:1031F000370085472DBB89470D8315BB62441357A4
:10320000330035B3624485B3CA87B1BB7971935734
:10321000750152CC56CA1317950006D622D426D271
:103220004AD04ECE5AC893F7F70F935A9700135AC5
:10323000F501FDC71307F00F6381E70613973A0006
:10324000B7060004938917F8B36AD7008144014B8D
:1032500093D775011394950093F7F70F258013D931
:10326000F501B9CB1307F00F6387E70A0E043707A0
:103270000004938717F8598C0146BD46B389F9407D
:1032800033472A0163E89614971600009386C67B9D
:103290008A04B6949C40B6978287BE8963980A0CCC
:1032A00093D775011394950093F7F70FA144094B39
:1032B000258013D9F501DDF751E80546D18CB947D2
:1032C00033472A0163E29704971600009386C67B72
:1032D0008A04B6949C40B69782878D47631AF60A93
:1032E00001479307F00FB7064000B25022541395E0
:1032F0007701558D7E0792540259F249624AD24AAB
:10330000424B598D456182809307F00F8146F1BF92
:1033100081478146D9BF39E4938919F0094679BFBD
:1033200063960A0091448149054B1DB756852EC608
:10333000EF00904B1307B5FF9307A0F8B245B39A7F
:10334000EA00B389A7408144014B19B72285EF00F9
:10335000B0491307B5FF9307A0F83314E400898F31
:10336000014621BF93E434000D4601BFB1440D4B2B
:10337000C5B589475289630EFB128D47E302FBF600
:1033800085476316FB004A8781478146B9BF56844B
:103390009387F9074A876350F00C9376740099C6B7
:1033A0009376F40011466383C6003294931644006A
:1033B00063D80600B70600F8FD1693870908758CD8
:1033C0009306E00FE3C2F6F493166400A58293F728
:1033D000F70F21BF1315540093160501135605016D
:1033E000C18263FB8A0A33D4CA02D687FD19814A97
:1033F000B305D402B3F7C702C207B3E7570163F8B6
:10340000B700AA971308F4FF63FAA70A42848D8FC6
:10341000B3D5C702B3F7C702B386D502C20763F2BA
:10342000D7023386A7003338F6009388F5FFB287BA
:10343000631808006376D600F915B307A60011A03B
:10344000C6854204958FB337F0004D8C5D8C938711
:10345000F907E344F0F4054699C71D8EED45814711
:103460008146E3C4C5E89387E909B317F400B3378D
:10347000F0003354C4005D8C9377740099C7937740
:10348000F40091466383D70036949317540063DCAD
:1034900007028547814691BD93D71A0033D4C702EE
:1034A000FE0A93DA0A01B305D402A9B78947E31CDF
:1034B000F6EC4A879307F00F814605BDE3F8B7F4B1
:1034C0007914AA97A9B71A0493569400814731BD7D
:1034D000935675013707800013D675017D1793F653
:1034E000F60F1308F00FB378A7009357F5016D8F0F
:1034F0001376F60FFD810545638206036307060117
:103500006394C6006384E800828082800145E38D75
:10351000B7FE0545F5FA333510018280E316D6FE75
:10352000B3E8E800E39208FE33C5B7008280935603
:10353000750137078000AA877D1713D5750193F6AB
:10354000F60F1306F00F3378F7001375F50F6D8F34
:10355000FD83FD816388C602630BC5008DEE11E912
:1035600021CB63100806139515007D15828021EB91
:1035700099E2E30A08FE6380B704B307F04013E55D
:1035800017008280631D0802E319D5FE0DEBE39658
:10359000B7FE0145828075D1E391B7FEE34FD5FCBC
:1035A00063CBA600E36B07FD01456366E8008280FC
:1035B000E31508FC8280139517007D1582807955EC
:1035C0008280E39CB7FAF9BF79719357750126D2CF
:1035D00052CC06D6131A950022D44AD04ECE56CAE3
:1035E0005AC893F7F70F135A9A009354F501638A58
:1035F00007201307F00F638DE7100E0A370700044A
:10360000138917F8336AEA008149014B93D7750192
:10361000939A950093F7F70F93DA9A0013D4F50174
:10362000638907101307F00F638BE71A938717F866
:1036300029473E9963463713370700048E0AB3C6FD
:1036400084008947B3EAEA003685014763D137032E
:103650008547B397370113F607536314061013F623
:1036600007246316061093F787086399072293953A
:103670000A0113170A014183C18113560A0193DA23
:103680000A013385E502B305B60293570501338776
:10369000EA022E97BA973306560363F4B7004167E0
:1036A0003A9642051397070141812A97C183131A5D
:1036B0006700B29769839A07333A4001336AEA0098
:1036C0001397470033EA47016349071E9307F90739
:1036D0006354F01813777A0015C31377FA00114674
:1036E000630EC700110A13174A0063590700370712
:1036F00000F87D1793070908337AEA001307E00FF3
:103700006349F71A13176A00258393F7F70FADA0E3
:103710003E8963100A1493D77501939A950093F725
:10372000F70FA149094B93DA9A0013D4F501E39BF3
:1037300007EE63830A065685EF00100BB307A94016
:1037400029471389A7F8634D37016D158947B39A47
:10375000AA00B3C68400E3DC37F136850147CDBD4E
:10376000268589476302FB148D476318FB04814655
:103770009307F00F37074000B2502254139577019A
:10378000598D9397F60192540259F249624AD24AEE
:10379000424B5D8D4561828093E91900A947E3C1E1
:1037A00037FD33C584008947AA860547E3C237EB56
:1037B0008947630BF70E014A054B8547AA866307C5
:1037C000FB089307090805096358F00813777A0086
:1037D00019DB1377FA001146E316C7F029B713096E
:1037E000F90F63950A0493E729002947E34AF7F69E
:1037F00033C58400AA860947E38C09FABE890947C4
:1038000081BD63160A0091490149054B01B55285F6
:103810002EC6D92F1307B5FF9307A0F8B245331A68
:10382000EA003389A7408149014BCDB393E93900C0
:103830002947634B37098547B397370193F78708C3
:10384000B3C684000D47E38407E289A88147014796
:1038500025B7B1490D4B5DBB054699C71D8EED459A
:1038600081470147E3CAC5F01309E90933192A0161
:1038700033392001B357CA00B3E7270113F77700A4
:1038800019C713F7F70011466303C700B2971397E0
:103890005700635F070285470147F9BD3A8B8947A7
:1038A0002285568AE312FBECAA869307F00F0147A4
:1038B000E1B59307F00F0147C1B593571A00137A8A
:1038C0001A0033EA4701F5BD8146370740006DB560
:1038D0009A0713D79700814745B5B70680000111B5
:1038E00093D77501FD1633F7A60013587501ED8EB9
:1038F0009358F50126CA4AC806CE93F7F70F130668
:10390000F00FFD81131E3700139536001379F80F61
:10391000C6846384C71093C515003303F940638AD6
:10392000B808635A6038638307186301C914B7077E
:1039300000045D8DED4763D267241307FEFF9317E4
:10394000570063DC071022CC7D5E93176E0013D402
:1039500067002285512D1303B5FFB3176400635C24
:10396000231D370E00FC7D1E13F7770033036940DB
:1039700033FEC701630A0744BD8B1147624463816C
:10398000E70E110E93175E0063DC070C130513009E
:103990009307F00F93F814006312F5100147F240FB
:1039A0005E05598D9397F801D24442495D8D0561BA
:1039B000828063586034639307105DC19307F3FFFF
:1039C0006384072C6304C30A6D47634EF70E3E837E
:1039D00093060002B3866640B316D500B336D00016
:1039E000B3576500D58F3E9E93175E0063DA071AC2
:1039F000130319009307F00F630EF3263707007EB9
:103A000093571E007D17F98F137E1E0033EEC701FA
:103A100093777E006397071491AA130619F039ED86
:103A200093C515006388B81E55CA631309243E83E5
:103A300063090E241307F3FF630807301306F00F22
:103A40006302C32EED4663DAE6281307F5FF9316EB
:103A5000570063C1062EAE843E89130E47004A8389
:103A60009307F00F13573E006313F3066306073402
:103A700081481305F00F3707400015B7638BB81462
:103A800031CEE30609FA3E8581483707400001BF81
:103A900093175E00054563D5073262441375F50F31
:103AA00013176E00258393F81400D5BD55D99307DD
:103AB000F3FFB9CFE30CC3FA3E83ADBDE308C9FA07
:103AC000ED4763DE671613075E000D834A83260702
:103AD00025831375F30F93F81400D1B593071900DC
:103AE00093F7E70FE9EBE31509F8630A0E2463087F
:103AF00005203307AE409317570063D20728330ED3
:103B0000C541631E0E2893F815000145014741BDCC
:103B10003307AE4093165700B707000463D1062061
:103B2000FD1722CC3374F70022857D291303B5FFDE
:103B3000B31764000549330323410503130E000244
:103B4000330E6E40339EC701333EC001B3D76700CA
:103B500033EEC701630D0E1693777E0001438DDBB4
:103B600062449377FE001147E39DE7E093175E0000
:103B7000E3CE07E013573E0099BF93060002B386D9
:103B80006640B316D500B336D000B3576500D58F65
:103B9000330EFE4093175E0063D4070022CC75B34A
:103BA00093777E00638407229377FE0011474A8350
:103BB000E399E7DC75B522CC3304AE40931754008B
:103BC00063CD070AE31704D86244814801450147E1
:103BD000F9B331C2E31909EA3E8363050E0A1307FC
:103BE000F3FF5DC31306F00F630FC312ED4663CE00
:103BF000E6123A8313070002330767403317EE00DB
:103C000033536E003337E0003363E3003E89330EF5
:103C1000A300D9BB21EE130319009377E30F85E7C7
:103C2000631B0914630A0E0C79C93307AE0093179E
:103C3000570063DB07141A07258305458DB3B707C3
:103C400000045D8D71B39307F00F6305F302330732
:103C5000AE0005839377770081CB91469377F70089
:103C6000330ED700E39ED7DE0D8395B5E30609F644
:103C700093F815001305F00F15B33304C541AE8456
:103C8000C9B9AE842A8EE9BBB307AE0013975700BB
:103C90006353071085833707007E7D1793F67700FF
:103CA0007D8F638806109146BD8B330ED700094384
:103CB000E398D7DA55BFE30303E2338727413A831A
:103CC000E30809D6B7060004336EDE00A5BB6244E4
:103CD00093F8140001450147D9B193060002998E6B
:103CE000B316DE003357EE00B336D000558F3E8951
:103CF000AE84330EE54079BD3687E30105CA014342
:103D0000F9B3E30A03F033832741E30809EC6D4775
:103D1000634D670037070004336EEE00E1BD0D838D
:103D2000054375B3AE84368791B3130755000D83F1
:103D30003E8371BB22CC3E89AE847D5E39B129C100
:103D4000AE843687014361B33307C54193165700EC
:103D5000B707000463DD0602FD1722CC3374F700B9
:103D600022852EC65124B2451303B5FFB317640054
:103D7000AE840549C9B3E31D0ECE3687C5B909E740
:103D800081480145014721B90D83014389B30D8362
:103D9000AE8405432DBB13D7370005430DBB9317E6
:103DA0005E00AE84054513573E000143E3CA07CECB
:103DB00039BB09430D8321BBA68593F815005DBD72
:103DC000624413573E0021B3624459B94A8349B94A
:103DD00013577501370680009307F6FF1377F70F27
:103DE0009305E007B3F6A7009357F50163DBE50001
:103DF0009305D00963D9E500370500807D153E9510
:103E000082800145828093055009D18E63CDE50003
:103E1000130660093307E640B3D6E6003305D04009
:103E2000F5F3368582801307A7F6B396E600FDB753
:103E3000411106C622C426C215CD1357F54133449D
:103E4000A700198CAA87228593D4F701712A9307BA
:103E5000E009B386A7409307600963CAD7022147E8
:103E60006302E50A61153314A4002604258093F744
:103E7000F60F21A0814481470144DE07B240C18F83
:103E800022441395F4015D8D924441018280130711
:103E900090096340D7049307B5FF3314F400B707C4
:103EA00000FCFD1713777400E18F31C73D8811477F
:103EB0006303E40491071397570013D43700635E3C
:103EC00007029307F0092604898F258093F7F70FDF
:103ED0006DB79307B5011547B317F400098FB337D2
:103EE000F0003354E4005D8CB70700FCFD17137736
:103EF0007400E18F45FF13D437002604258093F723
:103F0000F60FA5BF260425808DBF411106C622C429
:103F100015C92A84D1281307E009098F930760097E
:103F200063CAE702A146630DD50A61153314A400E4
:103F300026041375F70F25805E05B240418D22449B
:103F400041018280014501445E05B240418D224419
:103F5000410182809307900963C6E7049307B5FF88
:103F60003314F400B70700FCFD1793767400E18F5B
:103F7000A1CE3D8891466309D404910793965700DA
:103F800013D4370063D406049307F0093385A740A0
:103F900026041375F50F25805E05B240418D22443D
:103FA000410182809307B5019546B317F400898ECD
:103FB000B337F0003354D4005D8CB70700FCFD1715
:103FC00093767400E18FD5F613D437002604137569
:103FD000F70F25805E05B240418D22444101828069
:103FE000260425803E858DB7C1676376F502933739
:103FF000051093B717008E07130700021D8F335566
:10400000F500971700009387E7ABAA9703C5070051
:104010003305A7408280B70700016370F50241476E
:10402000BA873355F500971700009387A7A9AA9779
:1040300003C507003305A7408280E1473355F500EB
:1040400097170000938707A8AA9703C50700214781
:104050003305A7408280000006080000644000800D
:104060000000000000000000000000000000000050
:1040700000000000002000200020002000200000A0
:104080000020000000500050005000000000000020
:10409000000000000050005000F8005000F80050F0
:1040A000005000000020007800A00070002800F000
:1040B0000020000000C000C8001000200040009850
:1040C00000180000004000A000A0004000A80090E0
:1040D00000680000003000300020004000000000B8
:1040E00000000000001000200040004000400020C0
:1040F0000010000000400020001000100010002000
:1041000000400000002000A8007000F8007000A827
:104110000020000000000020002000F80020002007
:10412000000000000000000000000000003000302F
:104130000020000000000000000000F80000000067
:10414000000000000000000000000000000000303F
:104150000030000000000008001000200040008037
:104160000000000000700088009800A800C80088C7
:1041700000700000002000600020002000200020CF
:10418000007000000070008800080070008000804F
:1041900000F8000000F80008001000300008008857
:1041A00000700000001000300050009000F8001077
:1041B0000010000000F8008000F0000800080088EF
:1041C0000070000000380040008000F00088008887
:1041D0000070000000F800080008001000200040F7
:1041E000008000000070008800880070008800884F
:1041F000007000000070008800880078000800103F
:1042000000E000000000000000200000002000008E
:10421000000000000000000000200000002000203E
:1042200000400000000800100020004000200010A6
:10423000000800000000000000F8000000F8000086
:1042400000000000004000200010000800100020C6
:1042500000400000007000880008003000200000CE
:10426000002000000070008800A800B800B00080A6
:1042700000780000002000500088008800F80088C6
:104280000088000000F00088008800F000880088A6
:1042900000F000000070008800800080008000882E
:1042A0000070000000F00088008800880088008806
:1042B00000F0000000F80080008000F00080008026
:1042C00000F8000000F80080008000F0008000800E
:1042D000008000000078008800800080009800883E
:1042E0000078000000880088008800F800880088B6
:1042F0000088000000700020002000200020002026
:104300000070000000380010001000100010009035
:10431000006000000088009000A000C000A0009095
:104320000088000000800080008000800080008005
:1043300000F80000008800D800A800A800A80088A5
:10434000008800000088008800C800A80098008845
:1043500000880000007000880088008800880088BD
:104360000070000000F00088008800F000800080ED
:1043700000800000007000880088008800A800907D
:104380000068000000F00088008800F000A00090A5
:10439000008800000070008800800070000800881D
:1043A0000070000000F800A800200020002000207D
:1043B00000200000008800880088008800880088AD
:1043C0000070000000880088008800880088005085
:1043D0000020000000880088008800A800A800A82D
:1043E0000050000000880088005000200050008825
:1043F0000088000000880088005000200020002075
:104400000020000000F8000800100070004000804C
:1044100000F80000007800400040004000400040EC
:10442000007800000000008000400020001000081C
:1044300000000000007800080008000800080008DC
:1044400000780000002000500088000000000000FC
:10445000000000000000000000000000000000005C
:1044600000F8000000600060002000100000000064
:1044700000000000000000000060001000700090CC
:10448000007800000080008000B000C8008800C8EC
:1044900000B000000000000000700088008000886C
:1044A000007000000008000800680098008800986C
:1044B00000680000000000000070008800F8008024
:1044C0000070000000100028002000700020002074
:1044D00000200000000000000070009800980068B4
:1044E000000800000080008000B000C8008800883C
:1044F0000088000000200000006000200020002054
:10450000007000000010000000100010001000906B
:104510000060000000800080009000A000C000A0AB
:1045200000900000006000200020002000200020FB
:10453000007000000000000000D000A800A800A843
:1045400000A800000000000000B000C8008800883B
:1045500000880000000000000070008800880088CB
:10456000007000000000000000B000C800C800B0EB
:1045700000800000000000000068009800980068BB
:10458000000800000000000000B000C800800080AB
:10459000008000000000000000780080007000082B
:1045A00000F000000020002000F80020002000287B
:1045B00000100000000000000088008800880098BB
:1045C000006800000000000000880088008800509B
:1045D00000200000000000000088008800A800A85B
:1045E0000050000000000000008800500020005033
:1045F00000880000000000000088008800780008A3
:10460000008800000000000000F8001000200040BA
:1046100000F80000001000200020004000200020D2
:1046200000100000002000200020000000200020DA
:10463000002000000040002000200010002000208A
:1046400000400000004000A8001000000000000032
:104650000000000053504920696E6974204F4B0DD3
:104660000A00000048656C6C6F2C20576F726C64F8
:1046700021000000000FC93F000F494000CB9640C9
:10468000000FC9400053FB4000CB164100ED2F4105
:10469000000F49410031624100537B41003A8A4199
:1046A00000CB9641005CA34100EDAF41007EBC41D0
:1046B000000FC94100A0D5410031E24100C2EE41E6
:1046C0000053FB4100F20342003A0A4200831042C9
:1046D00000CB164200141D42005C234200A5294273
:1046E00000ED2F4200363642007E3C4200C7424277
:1046F000000F4942A2000000F90000008300000002
:104700006E0000004E000000440000001500000094
:1047100029000000FC0000002700000057000000F6
:10472000D1000000F500000034000000DD000000B2
:10473000C0000000DB0000006200000095000000E7
:10474000990000003C0000004300000090000000C1
:1047500041000000FE000000510000006300000066
:10476000AB000000DE000000BB000000C500000040
:1047700061000000B7000000240000006E0000008F
:104780003A000000420000004D000000D20000008E
:10479000E000000006000000490000002E000000BC
:1047A000EA00000009000000D100000092000000B3
:1047B0001C000000FE0000001D000000EB000000D7
:1047C0001C000000B100000029000000A70000004C
:1047D0003E000000E80000008200000035000000FC
:1047E000F50000002E000000BB00000044000000A7
:1047F00084000000E90000009C0000007000000040
:1048000026000000B40000005F0000007E000000F1
:10481000410000003900000091000000D6000000B7
:104820003900000083000000530000003900000040
:10483000F40000009C000000840000005F00000005
:104840008B000000BD000000F900000028000000FF
:104850003B0000001F000000F8000000970000006F
:10486000FF000000DE0000000500000098000000CE
:104870000F000000EF0000002F00000011000000FA
:104880008B0000005A0000000A0000006D000000CC
:104890001F0000006D000000360000007E000000D8
:1048A000CF00000027000000CB000000090000003E
:1048B000B70000004F000000460000003F0000006D
:1048C000660000009E0000005F000000EA0000009B
:1048D0002D0000007500000027000000BA00000055
:1048E000C7000000EB000000E5000000F100000040
:1048F0007B0000003D0000000700000039000000C0
:10490000F70000008A000000520000009200000042
:10491000EA0000006B000000FB0000005F000000E8
:10492000B10000001F0000008D0000005D000000CD
:1049300008000000560000000300000030000000E6
:1049400046000000FC0000007B0000006B0000003F
:10495000AB000000F0000000CF000000BC00000031
:10496000200000009A000000F40000003600000063
:104970001D000000A9000000E300000091000000FD
:10498000610000005E000000E60000001B00000067
:10499000080000006500000099000000850000008C
:1049A0005F00000014000000A0000000680000008C
:1049B000400000008D000000FF000000D800000053
:1049C000800000004D000000730000002700000080
:1049D0003100000006000000060000001500000085
:1049E00056000000CA00000073000000A80000008C
:1049F000C900000060000000E20000007B00000031
:104A0000C00000008C0000006B0000000000C93FE7
:104A10000000F0390000DA370000A2330000842ED5
:104A20000000502B0000C2270000D0220000C41F4D
:104A30000000C61B0000441704000000070000002F
:104A40000900000090E9FFFFC4E8FFFFCCE8FFFF8A
:104A500096E8FFFFCCE8FFFF9CE8FFFFCCE8FFFFF4
:104A600096E8FFFFC4E8FFFFC4E8FFFF9CE8FFFFF4
:104A700096E8FFFF2EE9FFFF2EE9FFFF2EE9FFFF7B
:104A80009CE8FFFF84E8FFFF84E8FFFF8CE8FFFF5E
:104A900028EAFFFF8CE8FFFF5CE8FFFF8CE8FFFFE0
:104AA00028EAFFFF84E8FFFF84E8FFFF5CE8FFFFE0
:104AB00028EAFFFFEEE8FFFFEEE8FFFFEEE8FFFF6A
:104AC00000010202030303030404040404040404B5
:104AD0000505050505050505050505050505050586
:104AE0000606060606060606060606060606060666
:104AF0000606060606060606060606060606060656
:104B00000707070707070707070707070707070735
:104B10000707070707070707070707070707070725
:104B20000707070707070707070707070707070715
:104B30000707070707070707070707070707070705
:104B400008080808080808080808080808080808E5
:104B500008080808080808080808080808080808D5
:104B600008080808080808080808080808080808C5
:104B700008080808080808080808080808080808B5
:104B800008080808080808080808080808080808A5
:104B90000808080808080808080808080808080895
:104BA0000808080808080808080808080808080885
:104BB0000808080808080808080808080808080875
:104BC000A7E78E3C0000383F0000903E0000803F89
:104BD0004ED747ADF6740F317CF29334010DD037C8
:104BE000610BB63AABAA2A3D0000003FD3C92E2F75
:104BF000342FD7321BEF3836010D50398988083CE5
:104C0000ABAA2A3E800FC93F4344353700443537AD
:104C100008A3852E84F9223F00A3852E32318D24EE
:104C2000000080430000803B0000003E0000004187
:104C300000000080000080BFCAF249710000004CF3
:104C40006042A20DCAF249F16042A28D0000003319
:104C5000411106C622C42A849700007EE780A02264
:104C6000B70705009C438507B357F5023757621015
:104C7000130737DDB3B7E70299838D669386769C79
:104C8000B387D702B3B7E702AD8319C4BE82FD1262
:104C9000E39F02FE7D147DF8B240224441018280F0
:104CA000411106C622C42A849700007EE780A01D19
:104CB000B70705009C4385073357F502B7566210C6
:104CC000938636DD3337D702198393172700BA97B7
:104CD0008607B3B7D702AD8319C4BE82FD12E39F26
:104CE00002FE7D147DF8B240224441018280000022
:04000005800000C0B7
:00000001FF
